{
  "_format": "hh-sol-artifact-1",
  "contractName": "ItemManager",
  "sourceName": "contracts/ItemManager.sol",
  "abi": [
    {
      "anonymous": false,
      "inputs": [
        {
          "indexed": false,
          "internalType": "uint256",
          "name": "_itemIndex",
          "type": "uint256"
        },
        {
          "indexed": false,
          "internalType": "uint256",
          "name": "_step",
          "type": "uint256"
        },
        {
          "indexed": false,
          "internalType": "address",
          "name": "_itemAddress",
          "type": "address"
        },
        {
          "indexed": false,
          "internalType": "string",
          "name": "_description",
          "type": "string"
        }
      ],
      "name": "itemEvent",
      "type": "event"
    },
    {
      "inputs": [],
      "name": "_owner",
      "outputs": [
        {
          "internalType": "address",
          "name": "",
          "type": "address"
        }
      ],
      "stateMutability": "view",
      "type": "function"
    },
    {
      "inputs": [
        {
          "internalType": "uint256",
          "name": "",
          "type": "uint256"
        }
      ],
      "name": "allItems",
      "outputs": [
        {
          "internalType": "contract Item",
          "name": "_item",
          "type": "address"
        },
        {
          "internalType": "uint256",
          "name": "timesPurchased",
          "type": "uint256"
        },
        {
          "internalType": "uint256",
          "name": "priceInWei",
          "type": "uint256"
        },
        {
          "internalType": "uint256",
          "name": "id",
          "type": "uint256"
        },
        {
          "internalType": "string",
          "name": "identifier",
          "type": "string"
        },
        {
          "internalType": "string",
          "name": "description",
          "type": "string"
        },
        {
          "internalType": "string",
          "name": "imageUrl",
          "type": "string"
        }
      ],
      "stateMutability": "view",
      "type": "function"
    },
    {
      "inputs": [
        {
          "internalType": "string",
          "name": "_identifier",
          "type": "string"
        },
        {
          "internalType": "uint256",
          "name": "_priceInWei",
          "type": "uint256"
        },
        {
          "internalType": "string",
          "name": "_description",
          "type": "string"
        },
        {
          "internalType": "string",
          "name": "_imageUrl",
          "type": "string"
        }
      ],
      "name": "createItem",
      "outputs": [],
      "stateMutability": "nonpayable",
      "type": "function"
    },
    {
      "inputs": [],
      "name": "getAllItems",
      "outputs": [
        {
          "components": [
            {
              "internalType": "contract Item",
              "name": "_item",
              "type": "address"
            },
            {
              "internalType": "uint256",
              "name": "timesPurchased",
              "type": "uint256"
            },
            {
              "internalType": "uint256",
              "name": "priceInWei",
              "type": "uint256"
            },
            {
              "internalType": "uint256",
              "name": "id",
              "type": "uint256"
            },
            {
              "internalType": "string",
              "name": "identifier",
              "type": "string"
            },
            {
              "internalType": "string",
              "name": "description",
              "type": "string"
            },
            {
              "internalType": "string",
              "name": "imageUrl",
              "type": "string"
            }
          ],
          "internalType": "struct ItemManager.S_Item[]",
          "name": "",
          "type": "tuple[]"
        }
      ],
      "stateMutability": "view",
      "type": "function"
    },
    {
      "inputs": [
        {
          "internalType": "uint256",
          "name": "_index",
          "type": "uint256"
        }
      ],
      "name": "getOneItem",
      "outputs": [
        {
          "components": [
            {
              "internalType": "contract Item",
              "name": "_item",
              "type": "address"
            },
            {
              "internalType": "uint256",
              "name": "timesPurchased",
              "type": "uint256"
            },
            {
              "internalType": "uint256",
              "name": "priceInWei",
              "type": "uint256"
            },
            {
              "internalType": "uint256",
              "name": "id",
              "type": "uint256"
            },
            {
              "internalType": "string",
              "name": "identifier",
              "type": "string"
            },
            {
              "internalType": "string",
              "name": "description",
              "type": "string"
            },
            {
              "internalType": "string",
              "name": "imageUrl",
              "type": "string"
            }
          ],
          "internalType": "struct ItemManager.S_Item",
          "name": "",
          "type": "tuple"
        }
      ],
      "stateMutability": "view",
      "type": "function"
    },
    {
      "inputs": [],
      "name": "isOwner",
      "outputs": [
        {
          "internalType": "bool",
          "name": "",
          "type": "bool"
        }
      ],
      "stateMutability": "view",
      "type": "function"
    },
    {
      "inputs": [
        {
          "internalType": "uint256",
          "name": "",
          "type": "uint256"
        }
      ],
      "name": "items",
      "outputs": [
        {
          "internalType": "contract Item",
          "name": "_item",
          "type": "address"
        },
        {
          "internalType": "uint256",
          "name": "timesPurchased",
          "type": "uint256"
        },
        {
          "internalType": "uint256",
          "name": "priceInWei",
          "type": "uint256"
        },
        {
          "internalType": "uint256",
          "name": "id",
          "type": "uint256"
        },
        {
          "internalType": "string",
          "name": "identifier",
          "type": "string"
        },
        {
          "internalType": "string",
          "name": "description",
          "type": "string"
        },
        {
          "internalType": "string",
          "name": "imageUrl",
          "type": "string"
        }
      ],
      "stateMutability": "view",
      "type": "function"
    },
    {
      "inputs": [
        {
          "internalType": "uint256",
          "name": "_index",
          "type": "uint256"
        }
      ],
      "name": "triggerPayment",
      "outputs": [],
      "stateMutability": "payable",
      "type": "function"
    }
  ],
  "bytecode": "0x608060405234801561001057600080fd5b50336000806101000a81548173ffffffffffffffffffffffffffffffffffffffff021916908373ffffffffffffffffffffffffffffffffffffffff16021790555061259b806100606000396000f3fe608060405260043610620000865760003560e01c80638f32d59b11620000555780638f32d59b146200014d578063b2bdfa7b146200017d578063bfb231d214620001ad578063ff68fa6e14620001f75762000086565b806318b0a1a6146200008b5780634ba1d6aa14620000cf5780635091c2f614620000ff578063800fb83f146200012d575b600080fd5b3480156200009857600080fd5b50620000b76004803603810190620000b19190620014b2565b62000241565b604051620000c6919062001a72565b60405180910390f35b348015620000dc57600080fd5b50620000e7620004b2565b604051620000f69190620018fc565b60405180910390f35b3480156200010c57600080fd5b506200012b6004803603810190620001259190620013fb565b62000755565b005b6200014b6004803603810190620001459190620014b2565b62000aea565b005b3480156200015a57600080fd5b506200016562000d19565b60405162000174919062001920565b60405180910390f35b3480156200018a57600080fd5b506200019562000d70565b604051620001a49190620018df565b60405180910390f35b348015620001ba57600080fd5b50620001d96004803603810190620001d39190620014b2565b62000d94565b604051620001ee97969594939291906200197a565b60405180910390f35b3480156200020457600080fd5b506200022360048036038101906200021d9190620014b2565b62000fa6565b6040516200023897969594939291906200197a565b60405180910390f35b6200024b620011c9565b600260008381526020019081526020016000206040518060e00160405290816000820160009054906101000a900473ffffffffffffffffffffffffffffffffffffffff1673ffffffffffffffffffffffffffffffffffffffff1673ffffffffffffffffffffffffffffffffffffffff168152602001600182015481526020016002820154815260200160038201548152602001600482018054620002ef9062001ca3565b80601f01602080910402602001604051908101604052809291908181526020018280546200031d9062001ca3565b80156200036e5780601f1062000342576101008083540402835291602001916200036e565b820191906000526020600020905b8154815290600101906020018083116200035057829003601f168201915b50505050508152602001600582018054620003899062001ca3565b80601f0160208091040260200160405190810160405280929190818152602001828054620003b79062001ca3565b8015620004085780601f10620003dc5761010080835404028352916020019162000408565b820191906000526020600020905b815481529060010190602001808311620003ea57829003601f168201915b50505050508152602001600682018054620004239062001ca3565b80601f0160208091040260200160405190810160405280929190818152602001828054620004519062001ca3565b8015620004a25780601f106200047657610100808354040283529160200191620004a2565b820191906000526020600020905b8154815290600101906020018083116200048457829003601f168201915b5050505050815250509050919050565b60606001805480602002602001604051908101604052809291908181526020016000905b828210156200074c57838290600052602060002090600702016040518060e00160405290816000820160009054906101000a900473ffffffffffffffffffffffffffffffffffffffff1673ffffffffffffffffffffffffffffffffffffffff1673ffffffffffffffffffffffffffffffffffffffff168152602001600182015481526020016002820154815260200160038201548152602001600482018054620005809062001ca3565b80601f0160208091040260200160405190810160405280929190818152602001828054620005ae9062001ca3565b8015620005ff5780601f10620005d357610100808354040283529160200191620005ff565b820191906000526020600020905b815481529060010190602001808311620005e157829003601f168201915b505050505081526020016005820180546200061a9062001ca3565b80601f0160208091040260200160405190810160405280929190818152602001828054620006489062001ca3565b8015620006995780601f106200066d5761010080835404028352916020019162000699565b820191906000526020600020905b8154815290600101906020018083116200067b57829003601f168201915b50505050508152602001600682018054620006b49062001ca3565b80601f0160208091040260200160405190810160405280929190818152602001828054620006e29062001ca3565b8015620007335780601f10620007075761010080835404028352916020019162000733565b820191906000526020600020905b8154815290600101906020018083116200071557829003601f168201915b50505050508152505081526020019060010190620004d6565b50505050905090565b6200075f62000d19565b620007a1576040517f08c379a0000000000000000000000000000000000000000000000000000000008152600401620007989062001a50565b60405180910390fd5b60003084600354604051620007b6906200121c565b620007c4939291906200193d565b604051809103906000f080158015620007e1573d6000803e3d6000fd5b5090508060026000600354815260200190815260200160002060000160006101000a81548173ffffffffffffffffffffffffffffffffffffffff021916908373ffffffffffffffffffffffffffffffffffffffff16021790555060035460026000600354815260200190815260200160002060030181905550846002600060035481526020019081526020016000206004019080519060200190620008889291906200122a565b508360026000600354815260200190815260200160002060020181905550826002600060035481526020019081526020016000206005019080519060200190620008d49291906200122a565b50816002600060035481526020019081526020016000206006019080519060200190620009039291906200122a565b50600160026000600354815260200190815260200160002090806001815401808255809150506001900390600052602060002090600702016000909190919091506000820160009054906101000a900473ffffffffffffffffffffffffffffffffffffffff168160000160006101000a81548173ffffffffffffffffffffffffffffffffffffffff021916908373ffffffffffffffffffffffffffffffffffffffff1602179055506001820154816001015560028201548160020155600382015481600301556004820181600401908054620009df9062001ca3565b620009ec929190620012bb565b50600582018160050190805462000a039062001ca3565b62000a10929190620012bb565b50600682018160060190805462000a279062001ca3565b62000a34929190620012bb565b5050506003600081548092919062000a4c9062001d0f565b91905055507ff5b29b3fcb4f5059d632897369823d9e86c1317050598f7145fde27f57c96e726003546000600281111562000ab0577f4e487b7100000000000000000000000000000000000000000000000000000000600052602160045260246000fd5b8360026000600354815260200190815260200160002060050160405162000adb949392919062001a96565b60405180910390a15050505050565b60006002600083815260200190815260200160002060000160009054906101000a900473ffffffffffffffffffffffffffffffffffffffff1690503373ffffffffffffffffffffffffffffffffffffffff168173ffffffffffffffffffffffffffffffffffffffff161462000b96576040517f08c379a000000000000000000000000000000000000000000000000000000000815260040162000b8d9062001a0c565b60405180910390fd5b6002600083815260200190815260200160002060020154341462000bf1576040517f08c379a000000000000000000000000000000000000000000000000000000000815260040162000be89062001a2e565b60405180910390fd5b6001828154811062000c2c577f4e487b7100000000000000000000000000000000000000000000000000000000600052603260045260246000fd5b9060005260206000209060070201600101600081548092919062000c509062001d0f565b919050555060026000838152602001908152602001600020600101600081548092919062000c7e9062001d0f565b91905055507ff5b29b3fcb4f5059d632897369823d9e86c1317050598f7145fde27f57c96e726003546001600281111562000ce2577f4e487b7100000000000000000000000000000000000000000000000000000000600052602160045260246000fd5b8360026000600354815260200190815260200160002060050160405162000d0d949392919062001a96565b60405180910390a15050565b60008060009054906101000a900473ffffffffffffffffffffffffffffffffffffffff1673ffffffffffffffffffffffffffffffffffffffff163373ffffffffffffffffffffffffffffffffffffffff1614905090565b60008054906101000a900473ffffffffffffffffffffffffffffffffffffffff1681565b60026020528060005260406000206000915090508060000160009054906101000a900473ffffffffffffffffffffffffffffffffffffffff169080600101549080600201549080600301549080600401805462000df19062001ca3565b80601f016020809104026020016040519081016040528092919081815260200182805462000e1f9062001ca3565b801562000e705780601f1062000e445761010080835404028352916020019162000e70565b820191906000526020600020905b81548152906001019060200180831162000e5257829003601f168201915b50505050509080600501805462000e879062001ca3565b80601f016020809104026020016040519081016040528092919081815260200182805462000eb59062001ca3565b801562000f065780601f1062000eda5761010080835404028352916020019162000f06565b820191906000526020600020905b81548152906001019060200180831162000ee857829003601f168201915b50505050509080600601805462000f1d9062001ca3565b80601f016020809104026020016040519081016040528092919081815260200182805462000f4b9062001ca3565b801562000f9c5780601f1062000f705761010080835404028352916020019162000f9c565b820191906000526020600020905b81548152906001019060200180831162000f7e57829003601f168201915b5050505050905087565b6001818154811062000fb757600080fd5b90600052602060002090600702016000915090508060000160009054906101000a900473ffffffffffffffffffffffffffffffffffffffff1690806001015490806002015490806003015490806004018054620010149062001ca3565b80601f0160208091040260200160405190810160405280929190818152602001828054620010429062001ca3565b8015620010935780601f10620010675761010080835404028352916020019162001093565b820191906000526020600020905b8154815290600101906020018083116200107557829003601f168201915b505050505090806005018054620010aa9062001ca3565b80601f0160208091040260200160405190810160405280929190818152602001828054620010d89062001ca3565b8015620011295780601f10620010fd5761010080835404028352916020019162001129565b820191906000526020600020905b8154815290600101906020018083116200110b57829003601f168201915b505050505090806006018054620011409062001ca3565b80601f01602080910402602001604051908101604052809291908181526020018280546200116e9062001ca3565b8015620011bf5780601f106200119357610100808354040283529160200191620011bf565b820191906000526020600020905b815481529060010190602001808311620011a157829003601f168201915b5050505050905087565b6040518060e00160405280600073ffffffffffffffffffffffffffffffffffffffff1681526020016000815260200160008152602001600081526020016060815260200160608152602001606081525090565b6106af8062001eb783390190565b828054620012389062001ca3565b90600052602060002090601f0160209004810192826200125c5760008555620012a8565b82601f106200127757805160ff1916838001178555620012a8565b82800160010185558215620012a8579182015b82811115620012a75782518255916020019190600101906200128a565b5b509050620012b7919062001353565b5090565b828054620012c99062001ca3565b90600052602060002090601f016020900481019282620012ed576000855562001340565b82601f1062001300578054855562001340565b828001600101855582156200134057600052602060002091601f016020900482015b828111156200133f57825482559160010191906001019062001322565b5b5090506200134f919062001353565b5090565b5b808211156200136e57600081600090555060010162001354565b5090565b600062001389620013838462001b13565b62001aea565b905082815260208101848484011115620013a257600080fd5b620013af84828562001c5e565b509392505050565b600082601f830112620013c957600080fd5b8135620013db84826020860162001372565b91505092915050565b600081359050620013f58162001e9c565b92915050565b600080600080608085870312156200141257600080fd5b600085013567ffffffffffffffff8111156200142d57600080fd5b6200143b87828801620013b7565b94505060206200144e87828801620013e4565b935050604085013567ffffffffffffffff8111156200146c57600080fd5b6200147a87828801620013b7565b925050606085013567ffffffffffffffff8111156200149857600080fd5b620014a687828801620013b7565b91505092959194509250565b600060208284031215620014c557600080fd5b6000620014d584828501620013e4565b91505092915050565b6000620014ec83836200174d565b905092915050565b620014ff8162001bc4565b82525050565b6000620015128262001b6e565b6200151e818562001b91565b935083602082028501620015328562001b49565b8060005b85811015620015745784840389528151620015528582620014de565b94506200155f8362001b84565b925060208a0199505060018101905062001536565b50829750879550505050505092915050565b620015918162001bd8565b82525050565b620015a28162001c0e565b82525050565b620015b38162001c36565b82525050565b620015c48162001c36565b82525050565b6000620015d78262001b79565b620015e3818562001ba2565b9350620015f581856020860162001c6d565b620016008162001dea565b840191505092915050565b6000620016188262001b79565b62001624818562001bb3565b93506200163681856020860162001c6d565b620016418162001dea565b840191505092915050565b600081546200165b8162001ca3565b62001667818662001bb3565b945060018216600081146200168557600181146200169857620016cf565b60ff1983168652602086019350620016cf565b620016a38562001b59565b60005b83811015620016c757815481890152600182019150602081019050620016a6565b808801955050505b50505092915050565b6000620016e760378362001bb3565b9150620016f48262001dfb565b604082019050919050565b60006200170e60128362001bb3565b91506200171b8262001e4a565b602082019050919050565b60006200173560208362001bb3565b9150620017428262001e73565b602082019050919050565b600060e083016000830151620017676000860182620015a8565b5060208301516200177c6020860182620018bd565b506040830151620017916040860182620018bd565b506060830151620017a66060860182620018bd565b5060808301518482036080860152620017c08282620015ca565b91505060a083015184820360a0860152620017dc8282620015ca565b91505060c083015184820360c0860152620017f88282620015ca565b9150508091505092915050565b600060e0830160008301516200181f6000860182620015a8565b506020830151620018346020860182620018bd565b506040830151620018496040860182620018bd565b5060608301516200185e6060860182620018bd565b5060808301518482036080860152620018788282620015ca565b91505060a083015184820360a0860152620018948282620015ca565b91505060c083015184820360c0860152620018b08282620015ca565b9150508091505092915050565b620018c88162001c04565b82525050565b620018d98162001c04565b82525050565b6000602082019050620018f66000830184620014f4565b92915050565b6000602082019050818103600083015262001918818462001505565b905092915050565b600060208201905062001937600083018462001586565b92915050565b600060608201905062001954600083018662001597565b620019636020830185620018ce565b620019726040830184620018ce565b949350505050565b600060e08201905062001991600083018a620015b9565b620019a06020830189620018ce565b620019af6040830188620018ce565b620019be6060830187620018ce565b8181036080830152620019d281866200160b565b905081810360a0830152620019e881856200160b565b905081810360c0830152620019fe81846200160b565b905098975050505050505050565b6000602082019050818103600083015262001a2781620016d8565b9050919050565b6000602082019050818103600083015262001a4981620016ff565b9050919050565b6000602082019050818103600083015262001a6b8162001726565b9050919050565b6000602082019050818103600083015262001a8e818462001805565b905092915050565b600060808201905062001aad6000830187620018ce565b62001abc6020830186620018ce565b62001acb6040830185620014f4565b818103606083015262001adf81846200164c565b905095945050505050565b600062001af662001b09565b905062001b04828262001cd9565b919050565b6000604051905090565b600067ffffffffffffffff82111562001b315762001b3062001dbb565b5b62001b3c8262001dea565b9050602081019050919050565b6000819050602082019050919050565b60008190508160005260206000209050919050565b600081519050919050565b600081519050919050565b6000602082019050919050565b600082825260208201905092915050565b600082825260208201905092915050565b600082825260208201905092915050565b600062001bd18262001be4565b9050919050565b60008115159050919050565b600073ffffffffffffffffffffffffffffffffffffffff82169050919050565b6000819050919050565b600062001c1b8262001c22565b9050919050565b600062001c2f8262001be4565b9050919050565b600062001c438262001c4a565b9050919050565b600062001c578262001be4565b9050919050565b82818337600083830152505050565b60005b8381101562001c8d57808201518184015260208101905062001c70565b8381111562001c9d576000848401525b50505050565b6000600282049050600182168062001cbc57607f821691505b6020821081141562001cd35762001cd262001d8c565b5b50919050565b62001ce48262001dea565b810181811067ffffffffffffffff8211171562001d065762001d0562001dbb565b5b80604052505050565b600062001d1c8262001c04565b91507fffffffffffffffffffffffffffffffffffffffffffffffffffffffffffffffff82141562001d525762001d5162001d5d565b5b600182019050919050565b7f4e487b7100000000000000000000000000000000000000000000000000000000600052601160045260246000fd5b7f4e487b7100000000000000000000000000000000000000000000000000000000600052602260045260246000fd5b7f4e487b7100000000000000000000000000000000000000000000000000000000600052604160045260246000fd5b6000601f19601f8301169050919050565b7f4f6e6c79206974656d732061726520616c6c6f77656420746f2075706461746560008201527f207468656d73656c7665732c20627564647920626f7921000000000000000000602082015250565b7f5061792075702c20627564647920626f79210000000000000000000000000000600082015250565b7f43616e206f6e6c792062652063616c6c656420627920746865206f776e657221600082015250565b62001ea78162001c04565b811462001eb357600080fd5b5056fe608060405234801561001057600080fd5b506040516106af3803806106af833981810160405281019061003291906100b3565b816000819055508060028190555082600360006101000a81548173ffffffffffffffffffffffffffffffffffffffff021916908373ffffffffffffffffffffffffffffffffffffffff16021790555050505061017e565b60008151905061009881610150565b92915050565b6000815190506100ad81610167565b92915050565b6000806000606084860312156100c857600080fd5b60006100d686828701610089565b93505060206100e78682870161009e565b92505060406100f88682870161009e565b9150509250925092565b600061010d82610126565b9050919050565b600061011f82610102565b9050919050565b600073ffffffffffffffffffffffffffffffffffffffff82169050919050565b6000819050919050565b61015981610114565b811461016457600080fd5b50565b61017081610146565b811461017b57600080fd5b50565b6105228061018d6000396000f3fe6080604052600436106100375760003560e01c80625b4487146102005780632986c0e51461022b5780633c8da58814610256576101fb565b366101fb573460005414610080576040517f08c379a000000000000000000000000000000000000000000000000000000000815260040161007790610350565b60405180910390fd5b346001600082825461009291906103b2565b925050819055506000600360009054906101000a900473ffffffffffffffffffffffffffffffffffffffff1673ffffffffffffffffffffffffffffffffffffffff16346002546040516024016100e89190610370565b6040516020818303038152906040527f800fb83f000000000000000000000000000000000000000000000000000000007bffffffffffffffffffffffffffffffffffffffffffffffffffffffff19166020820180517bffffffffffffffffffffffffffffffffffffffffffffffffffffffff83818316178352505050506040516101729190610319565b60006040518083038185875af1925050503d80600081146101af576040519150601f19603f3d011682016040523d82523d6000602084013e6101b4565b606091505b50509050806101f8576040517f08c379a00000000000000000000000000000000000000000000000000000000081526004016101ef90610330565b60405180910390fd5b50005b600080fd5b34801561020c57600080fd5b50610215610281565b6040516102229190610370565b60405180910390f35b34801561023757600080fd5b50610240610287565b60405161024d9190610370565b60405180910390f35b34801561026257600080fd5b5061026b61028d565b6040516102789190610370565b60405180910390f35b60015481565b60025481565b60005481565b600061029e8261038b565b6102a88185610396565b93506102b8818560208601610412565b80840191505092915050565b60006102d1602d836103a1565b91506102dc82610474565b604082019050919050565b60006102f4601a836103a1565b91506102ff826104c3565b602082019050919050565b61031381610408565b82525050565b60006103258284610293565b915081905092915050565b60006020820190508181036000830152610349816102c4565b9050919050565b60006020820190508181036000830152610369816102e7565b9050919050565b6000602082019050610385600083018461030a565b92915050565b600081519050919050565b600081905092915050565b600082825260208201905092915050565b60006103bd82610408565b91506103c883610408565b9250827fffffffffffffffffffffffffffffffffffffffffffffffffffffffffffffffff038211156103fd576103fc610445565b5b828201905092915050565b6000819050919050565b60005b83811015610430578082015181840152602081019050610415565b8381111561043f576000848401525b50505050565b7f4e487b7100000000000000000000000000000000000000000000000000000000600052601160045260246000fd5b7f546865207472616e73616374696f6e207761736e27742073756363657373667560008201527f6c2c2063616e63656c6c696e6700000000000000000000000000000000000000602082015250565b7f4f6e6c792066756c6c207061796d656e747320616c6c6f77656400000000000060008201525056fea26469706673582212202ce2b6dace9e119c89e106175bd14165043a8c795e06c9b7e81561e4bb89a64264736f6c63430008040033a26469706673582212203d7d58a9cec9b37e36fb5f7f06b712868478c73c9e8109044d55a8a4c86ec2fc64736f6c63430008040033",
  "linkReferences": {},
  "deployedLinkReferences": {}
}