{
  "_format": "hh-sol-artifact-1",
  "contractName": "ItemManager",
  "sourceName": "contracts/ItemManager.sol",
  "abi": [
    {
      "anonymous": false,
      "inputs": [
        {
          "indexed": false,
          "internalType": "uint256",
          "name": "_itemIndex",
          "type": "uint256"
        },
        {
          "indexed": false,
          "internalType": "uint256",
          "name": "_step",
          "type": "uint256"
        },
        {
          "indexed": false,
          "internalType": "address",
          "name": "_itemAddress",
          "type": "address"
        },
        {
          "indexed": false,
          "internalType": "string",
          "name": "_description",
          "type": "string"
        }
      ],
      "name": "itemEvent",
      "type": "event"
    },
    {
      "inputs": [],
      "name": "_owner",
      "outputs": [
        {
          "internalType": "address",
          "name": "",
          "type": "address"
        }
      ],
      "stateMutability": "view",
      "type": "function"
    },
    {
      "inputs": [
        {
          "internalType": "uint256",
          "name": "",
          "type": "uint256"
        }
      ],
      "name": "allItems",
      "outputs": [
        {
          "internalType": "contract Item",
          "name": "_item",
          "type": "address"
        },
        {
          "internalType": "uint256",
          "name": "timesPurchased",
          "type": "uint256"
        },
        {
          "internalType": "uint256",
          "name": "priceInWei",
          "type": "uint256"
        },
        {
          "internalType": "uint256",
          "name": "id",
          "type": "uint256"
        },
        {
          "internalType": "string",
          "name": "identifier",
          "type": "string"
        },
        {
          "internalType": "string",
          "name": "description",
          "type": "string"
        },
        {
          "internalType": "string",
          "name": "imageUrl",
          "type": "string"
        }
      ],
      "stateMutability": "view",
      "type": "function"
    },
    {
      "inputs": [
        {
          "internalType": "string",
          "name": "_identifier",
          "type": "string"
        },
        {
          "internalType": "uint256",
          "name": "_priceInWei",
          "type": "uint256"
        },
        {
          "internalType": "string",
          "name": "_description",
          "type": "string"
        },
        {
          "internalType": "string",
          "name": "_imageUrl",
          "type": "string"
        }
      ],
      "name": "createItem",
      "outputs": [],
      "stateMutability": "nonpayable",
      "type": "function"
    },
    {
      "inputs": [],
      "name": "getAllItems",
      "outputs": [
        {
          "components": [
            {
              "internalType": "contract Item",
              "name": "_item",
              "type": "address"
            },
            {
              "internalType": "uint256",
              "name": "timesPurchased",
              "type": "uint256"
            },
            {
              "internalType": "uint256",
              "name": "priceInWei",
              "type": "uint256"
            },
            {
              "internalType": "uint256",
              "name": "id",
              "type": "uint256"
            },
            {
              "internalType": "string",
              "name": "identifier",
              "type": "string"
            },
            {
              "internalType": "string",
              "name": "description",
              "type": "string"
            },
            {
              "internalType": "string",
              "name": "imageUrl",
              "type": "string"
            }
          ],
          "internalType": "struct ItemManager.S_Item[]",
          "name": "",
          "type": "tuple[]"
        }
      ],
      "stateMutability": "view",
      "type": "function"
    },
    {
      "inputs": [
        {
          "internalType": "address",
          "name": "_address",
          "type": "address"
        }
      ],
      "name": "getAllOrders",
      "outputs": [
        {
          "components": [
            {
              "internalType": "contract Item",
              "name": "_item",
              "type": "address"
            },
            {
              "internalType": "uint256",
              "name": "timesPurchased",
              "type": "uint256"
            },
            {
              "internalType": "uint256",
              "name": "priceInWei",
              "type": "uint256"
            },
            {
              "internalType": "uint256",
              "name": "id",
              "type": "uint256"
            },
            {
              "internalType": "string",
              "name": "identifier",
              "type": "string"
            },
            {
              "internalType": "string",
              "name": "description",
              "type": "string"
            },
            {
              "internalType": "string",
              "name": "imageUrl",
              "type": "string"
            }
          ],
          "internalType": "struct ItemManager.S_Item[]",
          "name": "",
          "type": "tuple[]"
        }
      ],
      "stateMutability": "view",
      "type": "function"
    },
    {
      "inputs": [
        {
          "internalType": "uint256",
          "name": "_index",
          "type": "uint256"
        }
      ],
      "name": "getOneItem",
      "outputs": [
        {
          "components": [
            {
              "internalType": "contract Item",
              "name": "_item",
              "type": "address"
            },
            {
              "internalType": "uint256",
              "name": "timesPurchased",
              "type": "uint256"
            },
            {
              "internalType": "uint256",
              "name": "priceInWei",
              "type": "uint256"
            },
            {
              "internalType": "uint256",
              "name": "id",
              "type": "uint256"
            },
            {
              "internalType": "string",
              "name": "identifier",
              "type": "string"
            },
            {
              "internalType": "string",
              "name": "description",
              "type": "string"
            },
            {
              "internalType": "string",
              "name": "imageUrl",
              "type": "string"
            }
          ],
          "internalType": "struct ItemManager.S_Item",
          "name": "",
          "type": "tuple"
        }
      ],
      "stateMutability": "view",
      "type": "function"
    },
    {
      "inputs": [],
      "name": "isOwner",
      "outputs": [
        {
          "internalType": "bool",
          "name": "",
          "type": "bool"
        }
      ],
      "stateMutability": "view",
      "type": "function"
    },
    {
      "inputs": [
        {
          "internalType": "uint256",
          "name": "",
          "type": "uint256"
        }
      ],
      "name": "items",
      "outputs": [
        {
          "internalType": "contract Item",
          "name": "_item",
          "type": "address"
        },
        {
          "internalType": "uint256",
          "name": "timesPurchased",
          "type": "uint256"
        },
        {
          "internalType": "uint256",
          "name": "priceInWei",
          "type": "uint256"
        },
        {
          "internalType": "uint256",
          "name": "id",
          "type": "uint256"
        },
        {
          "internalType": "string",
          "name": "identifier",
          "type": "string"
        },
        {
          "internalType": "string",
          "name": "description",
          "type": "string"
        },
        {
          "internalType": "string",
          "name": "imageUrl",
          "type": "string"
        }
      ],
      "stateMutability": "view",
      "type": "function"
    },
    {
      "inputs": [
        {
          "internalType": "address",
          "name": "",
          "type": "address"
        },
        {
          "internalType": "uint256",
          "name": "",
          "type": "uint256"
        }
      ],
      "name": "myOrders",
      "outputs": [
        {
          "internalType": "contract Item",
          "name": "_item",
          "type": "address"
        },
        {
          "internalType": "uint256",
          "name": "timesPurchased",
          "type": "uint256"
        },
        {
          "internalType": "uint256",
          "name": "priceInWei",
          "type": "uint256"
        },
        {
          "internalType": "uint256",
          "name": "id",
          "type": "uint256"
        },
        {
          "internalType": "string",
          "name": "identifier",
          "type": "string"
        },
        {
          "internalType": "string",
          "name": "description",
          "type": "string"
        },
        {
          "internalType": "string",
          "name": "imageUrl",
          "type": "string"
        }
      ],
      "stateMutability": "view",
      "type": "function"
    },
    {
      "inputs": [
        {
          "internalType": "uint256",
          "name": "_index",
          "type": "uint256"
        },
        {
          "internalType": "address",
          "name": "_buyer",
          "type": "address"
        }
      ],
      "name": "triggerPayment",
      "outputs": [],
      "stateMutability": "payable",
      "type": "function"
    }
  ],
  "bytecode": "0x608060405234801561001057600080fd5b50336000806101000a81548173ffffffffffffffffffffffffffffffffffffffff021916908373ffffffffffffffffffffffffffffffffffffffff160217905550612e0d806100606000396000f3fe6080604052600436106200009e5760003560e01c8063b0c149e31162000061578063b0c149e314620001bf578063b2bdfa7b14620001df578063b5fec1ff146200020f578063bfb231d21462000253578063ff68fa6e146200029d576200009e565b806318b0a1a614620000a357806335ebd1c614620000e75780634ba1d6aa14620001315780635091c2f614620001615780638f32d59b146200018f575b600080fd5b348015620000b057600080fd5b50620000cf6004803603810190620000c9919062001c5d565b620002e7565b604051620000de91906200225e565b60405180910390f35b348015620000f457600080fd5b506200011360048036038101906200010d919062001b65565b62000558565b60405162000128979695949392919062002166565b60405180910390f35b3480156200013e57600080fd5b506200014962000788565b604051620001589190620020e8565b60405180910390f35b3480156200016e57600080fd5b506200018d600480360381019062000187919062001ba6565b62000a2b565b005b3480156200019c57600080fd5b50620001a762000dc0565b604051620001b691906200210c565b60405180910390f35b620001dd6004803603810190620001d7919062001c89565b62000e17565b005b348015620001ec57600080fd5b50620001f7620011b5565b604051620002069190620020cb565b60405180910390f35b3480156200021c57600080fd5b506200023b600480360381019062000235919062001b39565b620011d9565b6040516200024a9190620020e8565b60405180910390f35b3480156200026057600080fd5b506200027f600480360381019062000279919062001c5d565b620014bb565b60405162000294979695949392919062002166565b60405180910390f35b348015620002aa57600080fd5b50620002c96004803603810190620002c3919062001c5d565b620016cd565b604051620002de979695949392919062002166565b60405180910390f35b620002f1620018f0565b600260008381526020019081526020016000206040518060e00160405290816000820160009054906101000a900473ffffffffffffffffffffffffffffffffffffffff1673ffffffffffffffffffffffffffffffffffffffff1673ffffffffffffffffffffffffffffffffffffffff16815260200160018201548152602001600282015481526020016003820154815260200160048201805462000395906200248f565b80601f0160208091040260200160405190810160405280929190818152602001828054620003c3906200248f565b8015620004145780601f10620003e85761010080835404028352916020019162000414565b820191906000526020600020905b815481529060010190602001808311620003f657829003601f168201915b505050505081526020016005820180546200042f906200248f565b80601f01602080910402602001604051908101604052809291908181526020018280546200045d906200248f565b8015620004ae5780601f106200048257610100808354040283529160200191620004ae565b820191906000526020600020905b8154815290600101906020018083116200049057829003601f168201915b50505050508152602001600682018054620004c9906200248f565b80601f0160208091040260200160405190810160405280929190818152602001828054620004f7906200248f565b8015620005485780601f106200051c5761010080835404028352916020019162000548565b820191906000526020600020905b8154815290600101906020018083116200052a57829003601f168201915b5050505050815250509050919050565b600460205281600052604060002081815481106200057557600080fd5b9060005260206000209060070201600091509150508060000160009054906101000a900473ffffffffffffffffffffffffffffffffffffffff1690806001015490806002015490806003015490806004018054620005d3906200248f565b80601f016020809104026020016040519081016040528092919081815260200182805462000601906200248f565b8015620006525780601f10620006265761010080835404028352916020019162000652565b820191906000526020600020905b8154815290600101906020018083116200063457829003601f168201915b50505050509080600501805462000669906200248f565b80601f016020809104026020016040519081016040528092919081815260200182805462000697906200248f565b8015620006e85780601f10620006bc57610100808354040283529160200191620006e8565b820191906000526020600020905b815481529060010190602001808311620006ca57829003601f168201915b505050505090806006018054620006ff906200248f565b80601f01602080910402602001604051908101604052809291908181526020018280546200072d906200248f565b80156200077e5780601f1062000752576101008083540402835291602001916200077e565b820191906000526020600020905b8154815290600101906020018083116200076057829003601f168201915b5050505050905087565b60606001805480602002602001604051908101604052809291908181526020016000905b8282101562000a2257838290600052602060002090600702016040518060e00160405290816000820160009054906101000a900473ffffffffffffffffffffffffffffffffffffffff1673ffffffffffffffffffffffffffffffffffffffff1673ffffffffffffffffffffffffffffffffffffffff16815260200160018201548152602001600282015481526020016003820154815260200160048201805462000856906200248f565b80601f016020809104026020016040519081016040528092919081815260200182805462000884906200248f565b8015620008d55780601f10620008a957610100808354040283529160200191620008d5565b820191906000526020600020905b815481529060010190602001808311620008b757829003601f168201915b50505050508152602001600582018054620008f0906200248f565b80601f01602080910402602001604051908101604052809291908181526020018280546200091e906200248f565b80156200096f5780601f1062000943576101008083540402835291602001916200096f565b820191906000526020600020905b8154815290600101906020018083116200095157829003601f168201915b505050505081526020016006820180546200098a906200248f565b80601f0160208091040260200160405190810160405280929190818152602001828054620009b8906200248f565b801562000a095780601f10620009dd5761010080835404028352916020019162000a09565b820191906000526020600020905b815481529060010190602001808311620009eb57829003601f168201915b50505050508152505081526020019060010190620007ac565b50505050905090565b62000a3562000dc0565b62000a77576040517f08c379a000000000000000000000000000000000000000000000000000000000815260040162000a6e906200223c565b60405180910390fd5b6000308460035460405162000a8c9062001943565b62000a9a9392919062002129565b604051809103906000f08015801562000ab7573d6000803e3d6000fd5b5090508060026000600354815260200190815260200160002060000160006101000a81548173ffffffffffffffffffffffffffffffffffffffff021916908373ffffffffffffffffffffffffffffffffffffffff1602179055506003546002600060035481526020019081526020016000206003018190555084600260006003548152602001908152602001600020600401908051906020019062000b5e92919062001951565b50836002600060035481526020019081526020016000206002018190555082600260006003548152602001908152602001600020600501908051906020019062000baa92919062001951565b5081600260006003548152602001908152602001600020600601908051906020019062000bd992919062001951565b50600160026000600354815260200190815260200160002090806001815401808255809150506001900390600052602060002090600702016000909190919091506000820160009054906101000a900473ffffffffffffffffffffffffffffffffffffffff168160000160006101000a81548173ffffffffffffffffffffffffffffffffffffffff021916908373ffffffffffffffffffffffffffffffffffffffff160217905550600182015481600101556002820154816002015560038201548160030155600482018160040190805462000cb5906200248f565b62000cc2929190620019e2565b50600582018160050190805462000cd9906200248f565b62000ce6929190620019e2565b50600682018160060190805462000cfd906200248f565b62000d0a929190620019e2565b5050506003600081548092919062000d2290620024fb565b91905055507ff5b29b3fcb4f5059d632897369823d9e86c1317050598f7145fde27f57c96e726003546000600281111562000d86577f4e487b7100000000000000000000000000000000000000000000000000000000600052602160045260246000fd5b8360026000600354815260200190815260200160002060050160405162000db1949392919062002282565b60405180910390a15050505050565b60008060009054906101000a900473ffffffffffffffffffffffffffffffffffffffff1673ffffffffffffffffffffffffffffffffffffffff163373ffffffffffffffffffffffffffffffffffffffff1614905090565b60006002600084815260200190815260200160002060000160009054906101000a900473ffffffffffffffffffffffffffffffffffffffff1690503373ffffffffffffffffffffffffffffffffffffffff168173ffffffffffffffffffffffffffffffffffffffff161462000ec3576040517f08c379a000000000000000000000000000000000000000000000000000000000815260040162000eba90620021f8565b60405180910390fd5b6002600084815260200190815260200160002060020154341462000f1e576040517f08c379a000000000000000000000000000000000000000000000000000000000815260040162000f15906200221a565b60405180910390fd5b6001838154811062000f59577f4e487b7100000000000000000000000000000000000000000000000000000000600052603260045260246000fd5b9060005260206000209060070201600101600081548092919062000f7d90620024fb565b919050555060026000848152602001908152602001600020600101600081548092919062000fab90620024fb565b9190505550600460008373ffffffffffffffffffffffffffffffffffffffff1673ffffffffffffffffffffffffffffffffffffffff1681526020019081526020016000206002600085815260200190815260200160002090806001815401808255809150506001900390600052602060002090600702016000909190919091506000820160009054906101000a900473ffffffffffffffffffffffffffffffffffffffff168160000160006101000a81548173ffffffffffffffffffffffffffffffffffffffff021916908373ffffffffffffffffffffffffffffffffffffffff1602179055506001820154816001015560028201548160020155600382015481600301556004820181600401908054620010c6906200248f565b620010d3929190620019e2565b506005820181600501908054620010ea906200248f565b620010f7929190620019e2565b5060068201816006019080546200110e906200248f565b6200111b929190620019e2565b5050507ff5b29b3fcb4f5059d632897369823d9e86c1317050598f7145fde27f57c96e72600354600160028111156200117d577f4e487b7100000000000000000000000000000000000000000000000000000000600052602160045260246000fd5b83600260006003548152602001908152602001600020600501604051620011a8949392919062002282565b60405180910390a1505050565b60008054906101000a900473ffffffffffffffffffffffffffffffffffffffff1681565b6060600460008373ffffffffffffffffffffffffffffffffffffffff1673ffffffffffffffffffffffffffffffffffffffff168152602001908152602001600020805480602002602001604051908101604052809291908181526020016000905b82821015620014b057838290600052602060002090600702016040518060e00160405290816000820160009054906101000a900473ffffffffffffffffffffffffffffffffffffffff1673ffffffffffffffffffffffffffffffffffffffff1673ffffffffffffffffffffffffffffffffffffffff168152602001600182015481526020016002820154815260200160038201548152602001600482018054620012e4906200248f565b80601f016020809104026020016040519081016040528092919081815260200182805462001312906200248f565b8015620013635780601f10620013375761010080835404028352916020019162001363565b820191906000526020600020905b8154815290600101906020018083116200134557829003601f168201915b505050505081526020016005820180546200137e906200248f565b80601f0160208091040260200160405190810160405280929190818152602001828054620013ac906200248f565b8015620013fd5780601f10620013d157610100808354040283529160200191620013fd565b820191906000526020600020905b815481529060010190602001808311620013df57829003601f168201915b5050505050815260200160068201805462001418906200248f565b80601f016020809104026020016040519081016040528092919081815260200182805462001446906200248f565b8015620014975780601f106200146b5761010080835404028352916020019162001497565b820191906000526020600020905b8154815290600101906020018083116200147957829003601f168201915b505050505081525050815260200190600101906200123a565b505050509050919050565b60026020528060005260406000206000915090508060000160009054906101000a900473ffffffffffffffffffffffffffffffffffffffff169080600101549080600201549080600301549080600401805462001518906200248f565b80601f016020809104026020016040519081016040528092919081815260200182805462001546906200248f565b8015620015975780601f106200156b5761010080835404028352916020019162001597565b820191906000526020600020905b8154815290600101906020018083116200157957829003601f168201915b505050505090806005018054620015ae906200248f565b80601f0160208091040260200160405190810160405280929190818152602001828054620015dc906200248f565b80156200162d5780601f1062001601576101008083540402835291602001916200162d565b820191906000526020600020905b8154815290600101906020018083116200160f57829003601f168201915b50505050509080600601805462001644906200248f565b80601f016020809104026020016040519081016040528092919081815260200182805462001672906200248f565b8015620016c35780601f106200169757610100808354040283529160200191620016c3565b820191906000526020600020905b815481529060010190602001808311620016a557829003601f168201915b5050505050905087565b60018181548110620016de57600080fd5b90600052602060002090600702016000915090508060000160009054906101000a900473ffffffffffffffffffffffffffffffffffffffff16908060010154908060020154908060030154908060040180546200173b906200248f565b80601f016020809104026020016040519081016040528092919081815260200182805462001769906200248f565b8015620017ba5780601f106200178e57610100808354040283529160200191620017ba565b820191906000526020600020905b8154815290600101906020018083116200179c57829003601f168201915b505050505090806005018054620017d1906200248f565b80601f0160208091040260200160405190810160405280929190818152602001828054620017ff906200248f565b8015620018505780601f10620018245761010080835404028352916020019162001850565b820191906000526020600020905b8154815290600101906020018083116200183257829003601f168201915b50505050509080600601805462001867906200248f565b80601f016020809104026020016040519081016040528092919081815260200182805462001895906200248f565b8015620018e65780601f10620018ba57610100808354040283529160200191620018e6565b820191906000526020600020905b815481529060010190602001808311620018c857829003601f168201915b5050505050905087565b6040518060e00160405280600073ffffffffffffffffffffffffffffffffffffffff1681526020016000815260200160008152602001600081526020016060815260200160608152602001606081525090565b61071b80620026bd83390190565b8280546200195f906200248f565b90600052602060002090601f016020900481019282620019835760008555620019cf565b82601f106200199e57805160ff1916838001178555620019cf565b82800160010185558215620019cf579182015b82811115620019ce578251825591602001919060010190620019b1565b5b509050620019de919062001a7a565b5090565b828054620019f0906200248f565b90600052602060002090601f01602090048101928262001a14576000855562001a67565b82601f1062001a27578054855562001a67565b8280016001018555821562001a6757600052602060002091601f016020900482015b8281111562001a6657825482559160010191906001019062001a49565b5b50905062001a76919062001a7a565b5090565b5b8082111562001a9557600081600090555060010162001a7b565b5090565b600062001ab062001aaa84620022ff565b620022d6565b90508281526020810184848401111562001ac957600080fd5b62001ad68482856200244a565b509392505050565b60008135905062001aef8162002688565b92915050565b600082601f83011262001b0757600080fd5b813562001b1984826020860162001a99565b91505092915050565b60008135905062001b3381620026a2565b92915050565b60006020828403121562001b4c57600080fd5b600062001b5c8482850162001ade565b91505092915050565b6000806040838503121562001b7957600080fd5b600062001b898582860162001ade565b925050602062001b9c8582860162001b22565b9150509250929050565b6000806000806080858703121562001bbd57600080fd5b600085013567ffffffffffffffff81111562001bd857600080fd5b62001be68782880162001af5565b945050602062001bf98782880162001b22565b935050604085013567ffffffffffffffff81111562001c1757600080fd5b62001c258782880162001af5565b925050606085013567ffffffffffffffff81111562001c4357600080fd5b62001c518782880162001af5565b91505092959194509250565b60006020828403121562001c7057600080fd5b600062001c808482850162001b22565b91505092915050565b6000806040838503121562001c9d57600080fd5b600062001cad8582860162001b22565b925050602062001cc08582860162001ade565b9150509250929050565b600062001cd8838362001f39565b905092915050565b62001ceb81620023b0565b82525050565b600062001cfe826200235a565b62001d0a81856200237d565b93508360208202850162001d1e8562002335565b8060005b8581101562001d60578484038952815162001d3e858262001cca565b945062001d4b8362002370565b925060208a0199505060018101905062001d22565b50829750879550505050505092915050565b62001d7d81620023c4565b82525050565b62001d8e81620023fa565b82525050565b62001d9f8162002422565b82525050565b62001db08162002422565b82525050565b600062001dc38262002365565b62001dcf81856200238e565b935062001de181856020860162002459565b62001dec81620025d6565b840191505092915050565b600062001e048262002365565b62001e1081856200239f565b935062001e2281856020860162002459565b62001e2d81620025d6565b840191505092915050565b6000815462001e47816200248f565b62001e5381866200239f565b9450600182166000811462001e71576001811462001e845762001ebb565b60ff198316865260208601935062001ebb565b62001e8f8562002345565b60005b8381101562001eb35781548189015260018201915060208101905062001e92565b808801955050505b50505092915050565b600062001ed36037836200239f565b915062001ee082620025e7565b604082019050919050565b600062001efa6012836200239f565b915062001f078262002636565b602082019050919050565b600062001f216020836200239f565b915062001f2e826200265f565b602082019050919050565b600060e08301600083015162001f53600086018262001d94565b50602083015162001f686020860182620020a9565b50604083015162001f7d6040860182620020a9565b50606083015162001f926060860182620020a9565b506080830151848203608086015262001fac828262001db6565b91505060a083015184820360a086015262001fc8828262001db6565b91505060c083015184820360c086015262001fe4828262001db6565b9150508091505092915050565b600060e0830160008301516200200b600086018262001d94565b506020830151620020206020860182620020a9565b506040830151620020356040860182620020a9565b5060608301516200204a6060860182620020a9565b506080830151848203608086015262002064828262001db6565b91505060a083015184820360a086015262002080828262001db6565b91505060c083015184820360c08601526200209c828262001db6565b9150508091505092915050565b620020b481620023f0565b82525050565b620020c581620023f0565b82525050565b6000602082019050620020e2600083018462001ce0565b92915050565b6000602082019050818103600083015262002104818462001cf1565b905092915050565b600060208201905062002123600083018462001d72565b92915050565b600060608201905062002140600083018662001d83565b6200214f6020830185620020ba565b6200215e6040830184620020ba565b949350505050565b600060e0820190506200217d600083018a62001da5565b6200218c6020830189620020ba565b6200219b6040830188620020ba565b620021aa6060830187620020ba565b8181036080830152620021be818662001df7565b905081810360a0830152620021d4818562001df7565b905081810360c0830152620021ea818462001df7565b905098975050505050505050565b60006020820190508181036000830152620022138162001ec4565b9050919050565b60006020820190508181036000830152620022358162001eeb565b9050919050565b60006020820190508181036000830152620022578162001f12565b9050919050565b600060208201905081810360008301526200227a818462001ff1565b905092915050565b6000608082019050620022996000830187620020ba565b620022a86020830186620020ba565b620022b7604083018562001ce0565b8181036060830152620022cb818462001e38565b905095945050505050565b6000620022e2620022f5565b9050620022f08282620024c5565b919050565b6000604051905090565b600067ffffffffffffffff8211156200231d576200231c620025a7565b5b6200232882620025d6565b9050602081019050919050565b6000819050602082019050919050565b60008190508160005260206000209050919050565b600081519050919050565b600081519050919050565b6000602082019050919050565b600082825260208201905092915050565b600082825260208201905092915050565b600082825260208201905092915050565b6000620023bd82620023d0565b9050919050565b60008115159050919050565b600073ffffffffffffffffffffffffffffffffffffffff82169050919050565b6000819050919050565b600062002407826200240e565b9050919050565b60006200241b82620023d0565b9050919050565b60006200242f8262002436565b9050919050565b60006200244382620023d0565b9050919050565b82818337600083830152505050565b60005b83811015620024795780820151818401526020810190506200245c565b8381111562002489576000848401525b50505050565b60006002820490506001821680620024a857607f821691505b60208210811415620024bf57620024be62002578565b5b50919050565b620024d082620025d6565b810181811067ffffffffffffffff82111715620024f257620024f1620025a7565b5b80604052505050565b60006200250882620023f0565b91507fffffffffffffffffffffffffffffffffffffffffffffffffffffffffffffffff8214156200253e576200253d62002549565b5b600182019050919050565b7f4e487b7100000000000000000000000000000000000000000000000000000000600052601160045260246000fd5b7f4e487b7100000000000000000000000000000000000000000000000000000000600052602260045260246000fd5b7f4e487b7100000000000000000000000000000000000000000000000000000000600052604160045260246000fd5b6000601f19601f8301169050919050565b7f4f6e6c79206974656d732061726520616c6c6f77656420746f2075706461746560008201527f207468656d73656c7665732c20627564647920626f7921000000000000000000602082015250565b7f5061792075702c20627564647920626f79210000000000000000000000000000600082015250565b7f43616e206f6e6c792062652063616c6c656420627920746865206f776e657221600082015250565b6200269381620023b0565b81146200269f57600080fd5b50565b620026ad81620023f0565b8114620026b957600080fd5b5056fe608060405234801561001057600080fd5b5060405161071b38038061071b833981810160405281019061003291906100b3565b816000819055508060028190555082600360006101000a81548173ffffffffffffffffffffffffffffffffffffffff021916908373ffffffffffffffffffffffffffffffffffffffff16021790555050505061017e565b60008151905061009881610150565b92915050565b6000815190506100ad81610167565b92915050565b6000806000606084860312156100c857600080fd5b60006100d686828701610089565b93505060206100e78682870161009e565b92505060406100f88682870161009e565b9150509250925092565b600061010d82610126565b9050919050565b600061011f82610102565b9050919050565b600073ffffffffffffffffffffffffffffffffffffffff82169050919050565b6000819050919050565b61015981610114565b811461016457600080fd5b50565b61017081610146565b811461017b57600080fd5b50565b61058e8061018d6000396000f3fe6080604052600436106100375760003560e01c80625b4487146102025780632986c0e51461022d5780633c8da58814610258576101fd565b366101fd573460005414610080576040517f08c379a000000000000000000000000000000000000000000000000000000000815260040161007790610361565b60405180910390fd5b346001600082825461009291906103ec565b925050819055506000600360009054906101000a900473ffffffffffffffffffffffffffffffffffffffff1673ffffffffffffffffffffffffffffffffffffffff1634600254336040516024016100ea92919061039c565b6040516020818303038152906040527fb0c149e3000000000000000000000000000000000000000000000000000000007bffffffffffffffffffffffffffffffffffffffffffffffffffffffff19166020820180517bffffffffffffffffffffffffffffffffffffffffffffffffffffffff8381831617835250505050604051610174919061032a565b60006040518083038185875af1925050503d80600081146101b1576040519150601f19603f3d011682016040523d82523d6000602084013e6101b6565b606091505b50509050806101fa576040517f08c379a00000000000000000000000000000000000000000000000000000000081526004016101f190610341565b60405180910390fd5b50005b600080fd5b34801561020e57600080fd5b50610217610283565b6040516102249190610381565b60405180910390f35b34801561023957600080fd5b50610242610289565b60405161024f9190610381565b60405180910390f35b34801561026457600080fd5b5061026d61028f565b60405161027a9190610381565b60405180910390f35b60015481565b60025481565b60005481565b61029e81610442565b82525050565b60006102af826103c5565b6102b981856103d0565b93506102c981856020860161047e565b80840191505092915050565b60006102e2602d836103db565b91506102ed826104e0565b604082019050919050565b6000610305601a836103db565b91506103108261052f565b602082019050919050565b61032481610474565b82525050565b600061033682846102a4565b915081905092915050565b6000602082019050818103600083015261035a816102d5565b9050919050565b6000602082019050818103600083015261037a816102f8565b9050919050565b6000602082019050610396600083018461031b565b92915050565b60006040820190506103b1600083018561031b565b6103be6020830184610295565b9392505050565b600081519050919050565b600081905092915050565b600082825260208201905092915050565b60006103f782610474565b915061040283610474565b9250827fffffffffffffffffffffffffffffffffffffffffffffffffffffffffffffffff03821115610437576104366104b1565b5b828201905092915050565b600061044d82610454565b9050919050565b600073ffffffffffffffffffffffffffffffffffffffff82169050919050565b6000819050919050565b60005b8381101561049c578082015181840152602081019050610481565b838111156104ab576000848401525b50505050565b7f4e487b7100000000000000000000000000000000000000000000000000000000600052601160045260246000fd5b7f546865207472616e73616374696f6e207761736e27742073756363657373667560008201527f6c2c2063616e63656c6c696e6700000000000000000000000000000000000000602082015250565b7f4f6e6c792066756c6c207061796d656e747320616c6c6f77656400000000000060008201525056fea264697066735822122013e619c5c1dfac981f3f43d593c89bbd050336972299b84dc4005e05eaa9e40b64736f6c63430008040033a26469706673582212202f33f4c42199f0821e5b1cbc24e93df0112f6f65b6233c8b6735982418b397af64736f6c63430008040033",
  "linkReferences": {},
  "deployedLinkReferences": {}
}